{
  "contractName": "ToDoList",
  "abi": [
    {
      "inputs": [],
      "stateMutability": "nonpayable",
      "type": "constructor"
    },
    {
      "inputs": [],
      "name": "length",
      "outputs": [
        {
          "internalType": "uint256",
          "name": "",
          "type": "uint256"
        }
      ],
      "stateMutability": "view",
      "type": "function",
      "constant": true
    },
    {
      "inputs": [],
      "name": "owner",
      "outputs": [
        {
          "internalType": "address",
          "name": "",
          "type": "address"
        }
      ],
      "stateMutability": "view",
      "type": "function",
      "constant": true
    },
    {
      "inputs": [
        {
          "internalType": "string",
          "name": "",
          "type": "string"
        }
      ],
      "name": "taskStatus",
      "outputs": [
        {
          "internalType": "bool",
          "name": "",
          "type": "bool"
        }
      ],
      "stateMutability": "view",
      "type": "function",
      "constant": true
    },
    {
      "inputs": [
        {
          "internalType": "uint256",
          "name": "",
          "type": "uint256"
        }
      ],
      "name": "tasks",
      "outputs": [
        {
          "internalType": "string",
          "name": "",
          "type": "string"
        }
      ],
      "stateMutability": "view",
      "type": "function",
      "constant": true
    },
    {
      "inputs": [
        {
          "internalType": "string",
          "name": "_task",
          "type": "string"
        }
      ],
      "name": "updateTask",
      "outputs": [],
      "stateMutability": "nonpayable",
      "type": "function"
    },
    {
      "inputs": [
        {
          "internalType": "string",
          "name": "_taskName",
          "type": "string"
        }
      ],
      "name": "addTask",
      "outputs": [],
      "stateMutability": "nonpayable",
      "type": "function"
    }
  ],
  "bytecode": "0x608060405234801561001057600080fd5b50336000806101000a81548173ffffffffffffffffffffffffffffffffffffffff021916908373ffffffffffffffffffffffffffffffffffffffff160217905550610a73806100606000396000f3fe608060405234801561001057600080fd5b50600436106100625760003560e01c806304a14979146100675780631f7b6d321461008357806367238562146100a15780638d977672146100bd5780638da5cb5b146100ed5780639fa025141461010b575b600080fd5b610081600480360381019061007c919061048c565b61013b565b005b61008b6101a0565b60405161009891906104ee565b60405180910390f35b6100bb60048036038101906100b6919061048c565b6101a6565b005b6100d760048036038101906100d29190610535565b61022c565b6040516100e491906105e1565b60405180910390f35b6100f56102d8565b6040516101029190610644565b60405180910390f35b6101256004803603810190610120919061048c565b6102fc565b604051610132919061067a565b60405180910390f35b60018160405161014b91906106d1565b908152602001604051809103902060009054906101000a900460ff161560018260405161017891906106d1565b908152602001604051809103902060006101000a81548160ff02191690831515021790555050565b60035481565b6002819080600181540180825580915050600190039060005260206000200160009091909190915090816101da91906108f4565b50600180826040516101ec91906106d1565b908152602001604051809103902060006101000a81548160ff02191690831515021790555060036000815480929190610224906109f5565b919050555050565b6002818154811061023c57600080fd5b90600052602060002001600091509050805461025790610717565b80601f016020809104026020016040519081016040528092919081815260200182805461028390610717565b80156102d05780601f106102a5576101008083540402835291602001916102d0565b820191906000526020600020905b8154815290600101906020018083116102b357829003601f168201915b505050505081565b60008054906101000a900473ffffffffffffffffffffffffffffffffffffffff1681565b6001818051602081018201805184825260208301602085012081835280955050505050506000915054906101000a900460ff1681565b6000604051905090565b600080fd5b600080fd5b600080fd5b600080fd5b6000601f19601f8301169050919050565b7f4e487b7100000000000000000000000000000000000000000000000000000000600052604160045260246000fd5b61039982610350565b810181811067ffffffffffffffff821117156103b8576103b7610361565b5b80604052505050565b60006103cb610332565b90506103d78282610390565b919050565b600067ffffffffffffffff8211156103f7576103f6610361565b5b61040082610350565b9050602081019050919050565b82818337600083830152505050565b600061042f61042a846103dc565b6103c1565b90508281526020810184848401111561044b5761044a61034b565b5b61045684828561040d565b509392505050565b600082601f83011261047357610472610346565b5b813561048384826020860161041c565b91505092915050565b6000602082840312156104a2576104a161033c565b5b600082013567ffffffffffffffff8111156104c0576104bf610341565b5b6104cc8482850161045e565b91505092915050565b6000819050919050565b6104e8816104d5565b82525050565b600060208201905061050360008301846104df565b92915050565b610512816104d5565b811461051d57600080fd5b50565b60008135905061052f81610509565b92915050565b60006020828403121561054b5761054a61033c565b5b600061055984828501610520565b91505092915050565b600081519050919050565b600082825260208201905092915050565b60005b8381101561059c578082015181840152602081019050610581565b60008484015250505050565b60006105b382610562565b6105bd818561056d565b93506105cd81856020860161057e565b6105d681610350565b840191505092915050565b600060208201905081810360008301526105fb81846105a8565b905092915050565b600073ffffffffffffffffffffffffffffffffffffffff82169050919050565b600061062e82610603565b9050919050565b61063e81610623565b82525050565b60006020820190506106596000830184610635565b92915050565b60008115159050919050565b6106748161065f565b82525050565b600060208201905061068f600083018461066b565b92915050565b600081905092915050565b60006106ab82610562565b6106b58185610695565b93506106c581856020860161057e565b80840191505092915050565b60006106dd82846106a0565b915081905092915050565b7f4e487b7100000000000000000000000000000000000000000000000000000000600052602260045260246000fd5b6000600282049050600182168061072f57607f821691505b602082108103610742576107416106e8565b5b50919050565b60008190508160005260206000209050919050565b60006020601f8301049050919050565b600082821b905092915050565b6000600883026107aa7fffffffffffffffffffffffffffffffffffffffffffffffffffffffffffffffff8261076d565b6107b4868361076d565b95508019841693508086168417925050509392505050565b6000819050919050565b60006107f16107ec6107e7846104d5565b6107cc565b6104d5565b9050919050565b6000819050919050565b61080b836107d6565b61081f610817826107f8565b84845461077a565b825550505050565b600090565b610834610827565b61083f818484610802565b505050565b5b818110156108635761085860008261082c565b600181019050610845565b5050565b601f8211156108a85761087981610748565b6108828461075d565b81016020851015610891578190505b6108a561089d8561075d565b830182610844565b50505b505050565b600082821c905092915050565b60006108cb600019846008026108ad565b1980831691505092915050565b60006108e483836108ba565b9150826002028217905092915050565b6108fd82610562565b67ffffffffffffffff81111561091657610915610361565b5b6109208254610717565b61092b828285610867565b600060209050601f83116001811461095e576000841561094c578287015190505b61095685826108d8565b8655506109be565b601f19841661096c86610748565b60005b828110156109945784890151825560018201915060208501945060208101905061096f565b868310156109b157848901516109ad601f8916826108ba565b8355505b6001600288020188555050505b505050505050565b7f4e487b7100000000000000000000000000000000000000000000000000000000600052601160045260246000fd5b6000610a00826104d5565b91507fffffffffffffffffffffffffffffffffffffffffffffffffffffffffffffffff8203610a3257610a316109c6565b5b60018201905091905056fea264697066735822122002434e68428b1a52ee812fa26179db3ffe9862203c08ff469da377d3b4cfc73864736f6c63430008130033",
  "immutableReferences": {},
  "source": "// SPDX-License-Identifier: MIT\npragma solidity 0.8.19;\n\ncontract ToDoList {\n  address public owner;\n\n  mapping(string => bool) public taskStatus;\n  string[] public tasks;\n  uint public length;\n\n  constructor() {\n    owner = msg.sender;\n  }\n\n  function updateTask(string memory _task) public {\n    // require(msg.sender == owner, \"You are not the owner, please switch accounts\");\n    taskStatus[_task] = !taskStatus[_task];\n  }\n\n  function addTask(string memory _taskName) public {\n    tasks.push(_taskName);\n    taskStatus[_taskName] = true;\n    length++;\n  }\n\n}\n",
  "sourcePath": "/Users/ritvik/Projects/Blockchain/to-do-list/contracts/ToDoList.sol",
  "compiler": {
    "name": "solc",
    "version": "0.8.19+commit.7dd6d404.Emscripten.clang"
  },
  "schemaVersion": "3.4.16",
  "updatedAt": "2023-11-24T18:47:46.009Z",
  "networkType": "ethereum",
  "devdoc": {
    "kind": "dev",
    "methods": {},
    "version": 1
  },
  "userdoc": {
    "kind": "user",
    "methods": {},
    "version": 1
  }
}