{
  "contractName": "ToDoList",
  "abi": [
    {
      "inputs": [
        {
          "internalType": "address",
          "name": "",
          "type": "address"
        }
      ],
      "name": "accounts",
      "outputs": [
        {
          "internalType": "uint8",
          "name": "taskLength",
          "type": "uint8"
        },
        {
          "components": [
            {
              "internalType": "string",
              "name": "name",
              "type": "string"
            },
            {
              "internalType": "bool",
              "name": "isComplete",
              "type": "bool"
            }
          ],
          "internalType": "struct ToDoList.Task",
          "name": "taskList",
          "type": "tuple"
        }
      ],
      "stateMutability": "view",
      "type": "function",
      "constant": true
    },
    {
      "inputs": [
        {
          "internalType": "uint8",
          "name": "",
          "type": "uint8"
        }
      ],
      "name": "taskListPublic",
      "outputs": [
        {
          "internalType": "string",
          "name": "name",
          "type": "string"
        },
        {
          "internalType": "bool",
          "name": "isComplete",
          "type": "bool"
        }
      ],
      "stateMutability": "view",
      "type": "function",
      "constant": true
    },
    {
      "inputs": [],
      "name": "updateTask",
      "outputs": [],
      "stateMutability": "nonpayable",
      "type": "function"
    },
    {
      "inputs": [
        {
          "internalType": "string",
          "name": "_taskName",
          "type": "string"
        }
      ],
      "name": "addTask",
      "outputs": [],
      "stateMutability": "nonpayable",
      "type": "function"
    }
  ],
  "bytecode": "0x608060405234801561001057600080fd5b50610c57806100206000396000f3fe608060405234801561001057600080fd5b506004361061004c5760003560e01c80634a33224a146100515780635e5c06e21461008257806367238562146100b3578063dccb44a4146100cf575b600080fd5b61006b600480360381019061006691906104e7565b6100d9565b6040516100799291906105bf565b60405180910390f35b61009c6004803603810190610097919061064d565b610192565b6040516100aa92919061071f565b60405180910390f35b6100cd60048036038101906100c89190610884565b61027a565b005b6100d7610356565b005b60016020528060005260406000206000915090508060000180546100fc906108fc565b80601f0160208091040260200160405190810160405280929190818152602001828054610128906108fc565b80156101755780601f1061014a57610100808354040283529160200191610175565b820191906000526020600020905b81548152906001019060200180831161015857829003601f168201915b5050505050908060010160009054906101000a900460ff16905082565b60006020528060005260406000206000915090508060000160009054906101000a900460ff1690806001016040518060400160405290816000820180546101d8906108fc565b80601f0160208091040260200160405190810160405280929190818152602001828054610204906108fc565b80156102515780601f1061022657610100808354040283529160200191610251565b820191906000526020600020905b81548152906001019060200180831161023457829003601f168201915b505050505081526020016001820160009054906101000a900460ff161515151581525050905082565b600060405180604001604052808381526020016000151581525090506040518060400160405280600160ff168152602001828152506000803373ffffffffffffffffffffffffffffffffffffffff1673ffffffffffffffffffffffffffffffffffffffff16815260200190815260200160002060008201518160000160006101000a81548160ff021916908360ff160217905550602082015181600101600082015181600001908161032c9190610ae3565b5060208201518160010160006101000a81548160ff02191690831515021790555050509050505050565b60008060003373ffffffffffffffffffffffffffffffffffffffff1673ffffffffffffffffffffffffffffffffffffffff16815260200190815260200160002060000160009054906101000a900460ff1660ff16116103ea576040517f08c379a00000000000000000000000000000000000000000000000000000000081526004016103e190610c01565b60405180910390fd5b6000803373ffffffffffffffffffffffffffffffffffffffff1673ffffffffffffffffffffffffffffffffffffffff16815260200190815260200160002060010160010160009054906101000a900460ff16156000803373ffffffffffffffffffffffffffffffffffffffff1673ffffffffffffffffffffffffffffffffffffffff16815260200190815260200160002060010160010160006101000a81548160ff021916908315150217905550565b6000604051905090565b600080fd5b600080fd5b600060ff82169050919050565b6104c4816104ae565b81146104cf57600080fd5b50565b6000813590506104e1816104bb565b92915050565b6000602082840312156104fd576104fc6104a4565b5b600061050b848285016104d2565b91505092915050565b600081519050919050565b600082825260208201905092915050565b60005b8381101561054e578082015181840152602081019050610533565b60008484015250505050565b6000601f19601f8301169050919050565b600061057682610514565b610580818561051f565b9350610590818560208601610530565b6105998161055a565b840191505092915050565b60008115159050919050565b6105b9816105a4565b82525050565b600060408201905081810360008301526105d9818561056b565b90506105e860208301846105b0565b9392505050565b600073ffffffffffffffffffffffffffffffffffffffff82169050919050565b600061061a826105ef565b9050919050565b61062a8161060f565b811461063557600080fd5b50565b60008135905061064781610621565b92915050565b600060208284031215610663576106626104a4565b5b600061067184828501610638565b91505092915050565b610683816104ae565b82525050565b600082825260208201905092915050565b60006106a582610514565b6106af8185610689565b93506106bf818560208601610530565b6106c88161055a565b840191505092915050565b6106dc816105a4565b82525050565b600060408301600083015184820360008601526106ff828261069a565b915050602083015161071460208601826106d3565b508091505092915050565b6000604082019050610734600083018561067a565b818103602083015261074681846106e2565b90509392505050565b600080fd5b600080fd5b7f4e487b7100000000000000000000000000000000000000000000000000000000600052604160045260246000fd5b6107918261055a565b810181811067ffffffffffffffff821117156107b0576107af610759565b5b80604052505050565b60006107c361049a565b90506107cf8282610788565b919050565b600067ffffffffffffffff8211156107ef576107ee610759565b5b6107f88261055a565b9050602081019050919050565b82818337600083830152505050565b6000610827610822846107d4565b6107b9565b90508281526020810184848401111561084357610842610754565b5b61084e848285610805565b509392505050565b600082601f83011261086b5761086a61074f565b5b813561087b848260208601610814565b91505092915050565b60006020828403121561089a576108996104a4565b5b600082013567ffffffffffffffff8111156108b8576108b76104a9565b5b6108c484828501610856565b91505092915050565b7f4e487b7100000000000000000000000000000000000000000000000000000000600052602260045260246000fd5b6000600282049050600182168061091457607f821691505b602082108103610927576109266108cd565b5b50919050565b60008190508160005260206000209050919050565b60006020601f8301049050919050565b600082821b905092915050565b60006008830261098f7fffffffffffffffffffffffffffffffffffffffffffffffffffffffffffffffff82610952565b6109998683610952565b95508019841693508086168417925050509392505050565b6000819050919050565b6000819050919050565b60006109e06109db6109d6846109b1565b6109bb565b6109b1565b9050919050565b6000819050919050565b6109fa836109c5565b610a0e610a06826109e7565b84845461095f565b825550505050565b600090565b610a23610a16565b610a2e8184846109f1565b505050565b5b81811015610a5257610a47600082610a1b565b600181019050610a34565b5050565b601f821115610a9757610a688161092d565b610a7184610942565b81016020851015610a80578190505b610a94610a8c85610942565b830182610a33565b50505b505050565b600082821c905092915050565b6000610aba60001984600802610a9c565b1980831691505092915050565b6000610ad38383610aa9565b9150826002028217905092915050565b610aec82610514565b67ffffffffffffffff811115610b0557610b04610759565b5b610b0f82546108fc565b610b1a828285610a56565b600060209050601f831160018114610b4d5760008415610b3b578287015190505b610b458582610ac7565b865550610bad565b601f198416610b5b8661092d565b60005b82811015610b8357848901518255600182019150602085019450602081019050610b5e565b86831015610ba05784890151610b9c601f891682610aa9565b8355505b6001600288020188555050505b505050505050565b7f4e6f207461736b7320746f207570646174650000000000000000000000000000600082015250565b6000610beb60128361051f565b9150610bf682610bb5565b602082019050919050565b60006020820190508181036000830152610c1a81610bde565b905091905056fea2646970667358221220090182718939646d47d65abdac458672575475cc5a1f8c529d0d54d0c7116a5d64736f6c63430008130033",
  "immutableReferences": {},
  "source": "// SPDX-License-Identifier: MIT\npragma solidity 0.8.19;\n\ncontract ToDoList {\n  struct Task{\n    string name;\n    bool isComplete;\n  }\n\n  struct Account{\n    uint8 taskLength;\n    // mapping (uint8 => Task) taskList;\n    Task taskList;\n    // Task[] taskList;\n  }\n\n  mapping(address => Account) public accounts;\n  mapping(uint8 => Task) public taskListPublic;\n  \n  function updateTask() public {\n    require(accounts[msg.sender].taskLength > 0, \"No tasks to update\");\n    accounts[msg.sender].taskList.isComplete = !accounts[msg.sender].taskList.isComplete;\n  }\n\n  function addTask(string memory _taskName) public {\n    Task memory newTask = Task(_taskName, false);\n    \n    accounts[msg.sender] = Account({\n      taskLength: 1,\n      taskList: newTask\n    });    \n\n  }\n\n}\n",
  "sourcePath": "/Users/ritvik/Projects/Blockchain/to-do-list/contracts/ToDoList.sol",
  "compiler": {
    "name": "solc",
    "version": "0.8.19+commit.7dd6d404.Emscripten.clang"
  },
  "schemaVersion": "3.4.16",
  "updatedAt": "2023-11-25T05:51:32.067Z",
  "networkType": "ethereum",
  "devdoc": {
    "kind": "dev",
    "methods": {},
    "version": 1
  },
  "userdoc": {
    "kind": "user",
    "methods": {},
    "version": 1
  }
}