{
  "contractName": "ToDoList",
  "abi": [
    {
      "inputs": [
        {
          "internalType": "address",
          "name": "",
          "type": "address"
        }
      ],
      "name": "accounts",
      "outputs": [
        {
          "internalType": "uint8",
          "name": "taskLength",
          "type": "uint8"
        }
      ],
      "stateMutability": "view",
      "type": "function",
      "constant": true
    },
    {
      "inputs": [
        {
          "internalType": "uint256",
          "name": "_id",
          "type": "uint256"
        }
      ],
      "name": "updateTask",
      "outputs": [],
      "stateMutability": "nonpayable",
      "type": "function"
    },
    {
      "inputs": [
        {
          "internalType": "uint256",
          "name": "_taskId",
          "type": "uint256"
        }
      ],
      "name": "getTask",
      "outputs": [
        {
          "internalType": "string",
          "name": "",
          "type": "string"
        },
        {
          "internalType": "bool",
          "name": "",
          "type": "bool"
        }
      ],
      "stateMutability": "view",
      "type": "function",
      "constant": true
    },
    {
      "inputs": [
        {
          "internalType": "string",
          "name": "_taskName",
          "type": "string"
        }
      ],
      "name": "addTask",
      "outputs": [],
      "stateMutability": "nonpayable",
      "type": "function"
    }
  ],
  "bytecode": "0x608060405234801561001057600080fd5b50610d70806100206000396000f3fe608060405234801561001057600080fd5b506004361061004c5760003560e01c80631d65e77e1461005157806330140291146100825780635e5c06e21461009e57806367238562146100ce575b600080fd5b61006b6004803603810190610066919061060d565b6100ea565b6040516100799291906106e5565b60405180910390f35b61009c6004803603810190610097919061060d565b6102b2565b005b6100b860048036038101906100b39190610773565b610437565b6040516100c591906107bc565b60405180910390f35b6100e860048036038101906100e3919061090c565b610462565b005b606060008060003373ffffffffffffffffffffffffffffffffffffffff1673ffffffffffffffffffffffffffffffffffffffff16815260200190815260200160002060000160009054906101000a900460ff1660ff168310610181576040517f08c379a0000000000000000000000000000000000000000000000000000000008152600401610178906109a1565b60405180910390fd5b60008060003373ffffffffffffffffffffffffffffffffffffffff1673ffffffffffffffffffffffffffffffffffffffff16815260200190815260200160002060010184815481106101d6576101d56109c1565b5b90600052602060002090600202016040518060400160405290816000820180546101ff90610a1f565b80601f016020809104026020016040519081016040528092919081815260200182805461022b90610a1f565b80156102785780601f1061024d57610100808354040283529160200191610278565b820191906000526020600020905b81548152906001019060200180831161025b57829003601f168201915b505050505081526020016001820160009054906101000a900460ff1615151515815250509050806000015181602001519250925050915091565b60008060003373ffffffffffffffffffffffffffffffffffffffff1673ffffffffffffffffffffffffffffffffffffffff16815260200190815260200160002060000160009054906101000a900460ff1660ff1611610346576040517f08c379a000000000000000000000000000000000000000000000000000000000815260040161033d90610a9c565b60405180910390fd5b6000803373ffffffffffffffffffffffffffffffffffffffff1673ffffffffffffffffffffffffffffffffffffffff1681526020019081526020016000206001018181548110610399576103986109c1565b5b906000526020600020906002020160010160009054906101000a900460ff16156000803373ffffffffffffffffffffffffffffffffffffffff1673ffffffffffffffffffffffffffffffffffffffff168152602001908152602001600020600101828154811061040c5761040b6109c1565b5b906000526020600020906002020160010160006101000a81548160ff02191690831515021790555050565b60006020528060005260406000206000915090508060000160009054906101000a900460ff16905081565b600060405180604001604052808381526020016000151581525090506000803373ffffffffffffffffffffffffffffffffffffffff1673ffffffffffffffffffffffffffffffffffffffff16815260200190815260200160002060010181908060018154018082558091505060019003906000526020600020906002020160009091909190915060008201518160000190816104fe9190610c68565b5060208201518160010160006101000a81548160ff02191690831515021790555050506000803373ffffffffffffffffffffffffffffffffffffffff1673ffffffffffffffffffffffffffffffffffffffff168152602001908152602001600020600101805490506000803373ffffffffffffffffffffffffffffffffffffffff1673ffffffffffffffffffffffffffffffffffffffff16815260200190815260200160002060000160006101000a81548160ff021916908360ff1602179055505050565b6000604051905090565b600080fd5b600080fd5b6000819050919050565b6105ea816105d7565b81146105f557600080fd5b50565b600081359050610607816105e1565b92915050565b600060208284031215610623576106226105cd565b5b6000610631848285016105f8565b91505092915050565b600081519050919050565b600082825260208201905092915050565b60005b83811015610674578082015181840152602081019050610659565b60008484015250505050565b6000601f19601f8301169050919050565b600061069c8261063a565b6106a68185610645565b93506106b6818560208601610656565b6106bf81610680565b840191505092915050565b60008115159050919050565b6106df816106ca565b82525050565b600060408201905081810360008301526106ff8185610691565b905061070e60208301846106d6565b9392505050565b600073ffffffffffffffffffffffffffffffffffffffff82169050919050565b600061074082610715565b9050919050565b61075081610735565b811461075b57600080fd5b50565b60008135905061076d81610747565b92915050565b600060208284031215610789576107886105cd565b5b60006107978482850161075e565b91505092915050565b600060ff82169050919050565b6107b6816107a0565b82525050565b60006020820190506107d160008301846107ad565b92915050565b600080fd5b600080fd5b7f4e487b7100000000000000000000000000000000000000000000000000000000600052604160045260246000fd5b61081982610680565b810181811067ffffffffffffffff82111715610838576108376107e1565b5b80604052505050565b600061084b6105c3565b90506108578282610810565b919050565b600067ffffffffffffffff821115610877576108766107e1565b5b61088082610680565b9050602081019050919050565b82818337600083830152505050565b60006108af6108aa8461085c565b610841565b9050828152602081018484840111156108cb576108ca6107dc565b5b6108d684828561088d565b509392505050565b600082601f8301126108f3576108f26107d7565b5b813561090384826020860161089c565b91505092915050565b600060208284031215610922576109216105cd565b5b600082013567ffffffffffffffff8111156109405761093f6105d2565b5b61094c848285016108de565b91505092915050565b7f496e76616c6964207461736b2049440000000000000000000000000000000000600082015250565b600061098b600f83610645565b915061099682610955565b602082019050919050565b600060208201905081810360008301526109ba8161097e565b9050919050565b7f4e487b7100000000000000000000000000000000000000000000000000000000600052603260045260246000fd5b7f4e487b7100000000000000000000000000000000000000000000000000000000600052602260045260246000fd5b60006002820490506001821680610a3757607f821691505b602082108103610a4a57610a496109f0565b5b50919050565b7f4e6f207461736b7320746f207570646174650000000000000000000000000000600082015250565b6000610a86601283610645565b9150610a9182610a50565b602082019050919050565b60006020820190508181036000830152610ab581610a79565b9050919050565b60008190508160005260206000209050919050565b60006020601f8301049050919050565b600082821b905092915050565b600060088302610b1e7fffffffffffffffffffffffffffffffffffffffffffffffffffffffffffffffff82610ae1565b610b288683610ae1565b95508019841693508086168417925050509392505050565b6000819050919050565b6000610b65610b60610b5b846105d7565b610b40565b6105d7565b9050919050565b6000819050919050565b610b7f83610b4a565b610b93610b8b82610b6c565b848454610aee565b825550505050565b600090565b610ba8610b9b565b610bb3818484610b76565b505050565b5b81811015610bd757610bcc600082610ba0565b600181019050610bb9565b5050565b601f821115610c1c57610bed81610abc565b610bf684610ad1565b81016020851015610c05578190505b610c19610c1185610ad1565b830182610bb8565b50505b505050565b600082821c905092915050565b6000610c3f60001984600802610c21565b1980831691505092915050565b6000610c588383610c2e565b9150826002028217905092915050565b610c718261063a565b67ffffffffffffffff811115610c8a57610c896107e1565b5b610c948254610a1f565b610c9f828285610bdb565b600060209050601f831160018114610cd25760008415610cc0578287015190505b610cca8582610c4c565b865550610d32565b601f198416610ce086610abc565b60005b82811015610d0857848901518255600182019150602085019450602081019050610ce3565b86831015610d255784890151610d21601f891682610c2e565b8355505b6001600288020188555050505b50505050505056fea2646970667358221220e74431d3f843d7bea52ae682562c76f81eab5462f3984b3f5a6c67844d513ea064736f6c63430008130033",
  "immutableReferences": {},
  "source": "// SPDX-License-Identifier: MIT\npragma solidity 0.8.19;\ncontract ToDoList {\n    struct Task {\n        string name;\n        bool isComplete;\n    }\n\n    struct Account {\n        uint8 taskLength;\n        Task[] taskList; \n    }\n\n    mapping(address => Account) public accounts;\n  \n    function updateTask(uint _id) public {\n        require(accounts[msg.sender].taskLength > 0, \"No tasks to update\");\n        accounts[msg.sender].taskList[_id].isComplete = !accounts[msg.sender].taskList[_id].isComplete;\n    }\n\n    function getTask(uint _taskId) public view returns (string memory, bool) {\n        require(_taskId < accounts[msg.sender].taskLength, \"Invalid task ID\");\n        Task memory task = accounts[msg.sender].taskList[_taskId];\n        return (task.name, task.isComplete);\n    }\n\n    function addTask(string memory _taskName) public {\n        Task memory newTask = Task(_taskName, false);\n\n        accounts[msg.sender].taskList.push(newTask);\n        accounts[msg.sender].taskLength = uint8(accounts[msg.sender].taskList.length);\n    }\n}",
  "sourcePath": "/Users/ritvik/Projects/Blockchain/to-do-list/contracts/ToDoList.sol",
  "compiler": {
    "name": "solc",
    "version": "0.8.19+commit.7dd6d404.Emscripten.clang"
  },
  "schemaVersion": "3.4.16",
  "updatedAt": "2023-11-25T14:57:53.642Z",
  "networkType": "ethereum",
  "devdoc": {
    "kind": "dev",
    "methods": {},
    "version": 1
  },
  "userdoc": {
    "kind": "user",
    "methods": {},
    "version": 1
  }
}